:020000040800F2
:1000000000500020D5400008254100082541000887
:1000100000000000000000000000000000000000E0
:100020000000000000000000000000002541000862
:1000300000000000000000002541000825410008E4
:1000400025410008254100082541000825410008F8
:1000500025410008254100082541000825410008E8
:1000600025410008254100082541000825410008D8
:10007000254100082541000825410008A915000870
:100080002541000825410008254100080000000026
:1000900025410008254100082541000825410008A8
:1000A0002541000825410008254100082541000898
:1000B00025410008254100080000000025410008F6
:1000C000002243088B4274D303098B425FD3030A97
:1000D0008B4244D3030B8B4228D3030C8B420DD3AA
:1000E000FF22090212BA030C8B4202D31212090238
:1000F00065D0030B8B4219D300E0090AC30B8B4276
:1001000001D3CB03C01A5241830B8B4201D38B0323
:10011000C01A5241430B8B4201D34B03C01A5241C8
:10012000030B8B4201D30B03C01A5241C30A8B420B
:1001300001D3CB02C01A5241830A8B4201D38B02F6
:10014000C01A5241430A8B4201D34B02C01A52419A
:10015000030A8B4201D30B02C01A5241CDD2C3090C
:100160008B4201D3CB01C01A524183098B4201D388
:100170008B01C01A524143098B4201D34B01C01A73
:10018000524103098B4201D30B01C01A5241C308EB
:100190008B4201D3CB00C01A524183088B4201D35A
:1001A0008B00C01A524143088B4201D34B00C01A46
:1001B0005241411A00D20146524110467047FFE7B2
:1001C00001B5002000F006F802BDC0460029F7D0B6
:1001D00076E770477047C046844608006146FFE7EF
:1001E0001FB500F019FD002801D40021C8421FBD31
:1001F00010B500F095FC4042013010BD10B500F084
:100200000BFD002801DB002010BD012010BDC04601
:1002100010B500F001FD002801DD002010BD012017
:1002200010BDC04610B500F0A7FC002801DC00207E
:1002300010BD012010BDC04610B500F09DFC002887
:1002400001DA002010BD012010BDC046002B11D1E5
:10025000002A0FD1002900D1002802D00021C94373
:10026000080007B4024802A14018029003BDC0462E
:1002700065FFFFFF03B4684601B5029800F046F839
:10028000019B9E4602B00CBC7047C046F0B50F0003
:100290001104090C060C050404000800C6462D0CC8
:1002A0009C46130C684371435D435E436D18030C19
:1002B0005B1900B5994202D98021490276180004E1
:1002C0001D0C000C1B04181863467A435C43AD19DF
:1002D000A118491980BCB846F0BDC0469E2110B592
:1002E000C905041CFFF7A8FF002803D1201C01F05A
:1002F00077F810BD9E21201CC90500F027FE01F0F3
:100300006FF880231B06C018F3E7C046F0B54546DA
:100310005746DE464E46E0B504000D0090469A462C
:1003200083B08B422ED82BD05146404601F0DEF8E8
:1003300029000600200001F0D9F8331A9946203B25
:1003400031D442469A409B46170043464A46934062
:100350001E00AF4237D8AF4200D175E05A46A41B09
:10036000BD41002A00DA72E0012300200021934001
:1003700000900191019301234A469340009326E0A7
:100380008242D1D900220023009201930C9B002BC2
:1003900000D030C30098019903B0F0BCBB46B24610
:1003A000A946A046F0BD4A469B46202341469B1ADB
:1003B000D9400B00514691404A465F18434693404E
:1003C0001E00AF42C7D90022002300920193494684
:1003D0000029DBD0FB079C46720862440E007B08B4
:1003E0000EE0AB4201D1A2420CD8A41A9D410120DB
:1003F00024196D410021013E24184D41002E06D0E4
:10040000AB42EED9013E24196D41002EF8D100987F
:1004100001995A4600196941002A23DB2B004C46FA
:10042000D3402A005E46E2401C001500002E29DB66
:100430001F00B7403B0026004F46BE403200801AE6
:10044000994100900191A1E7A342BCD886E74A46B2
:10045000202300219B1A0022009101920122DA4000
:10046000019288E74E4620232A009B1B9A402300D6
:10047000F3404C46D3182A005E46E2401C001500AB
:10048000002ED5DA4F4620232600DB1BDE40B44683
:100490001600BE4033006344CDE7C046F0B5C64603
:1004A00047027B0A9C464B025A0A904645004A0086
:1004B0002D0E120ECE0F00B59909C40FBF09AB1A4D
:1004C000B4424BD0002B39DD002A00D177E0FF2D5C
:1004D00000D1C1E08022D20411431B2B00DCFFE0DD
:1004E000013F7A0100D4B1E001277F42BF01BA0980
:1004F0001600100000F0DCFF330005388340854211
:1005000000DCD5E0B94F2D1A1F405A0700D178E121
:100510000F221340042B00D173E104377B0100D478
:100520006FE1681CFE2D00D07DE0FF200022C00599
:100530001043E407204380BCB846F0BD002B46D0F2
:10054000531B002D73D1002F00D139E1012B00D1B5
:100550007EE1FF2B00D156E1013B6EE0002B00DC79
:1005600085E0002A51D1002972D05A1E012B00D1FA
:100570002CE1FF2B70D01B2A4CDC1300080020223A
:10058000D840D31A99400B005A1E93410343FF18D9
:100590008023DB041F4200D12CE10135FF2DC4D0A4
:1005A000934A79081140012217400F437A0700D07F
:1005B0008DE01F42B5D1FB089C462B002EE00029A0
:1005C00046D0012B67D0FF2B46D0013B85E7FE20AC
:1005D0006A1C104200D099E0002D00D0E6E0002F08
:1005E00000D12FE1002919D080257A1AED042A4282
:1005F00000D15AE13400CF1B00D18FE001202F42FF
:1006000012D1FB089C46002308E0FF2D24D01B2BB1
:1006100000DC9AE00537FB089C462B00624652023C
:10062000520AD8B283E7C0B2BA01520A7FE7FF2A62
:1006300000D1E8E08020C00407431B2B00DC88E0E9
:100640004F1E34001500790100D54DE72B0004370B
:10065000FA089446FF2BE1D16346002B00D145E117
:100660008022D2031A435202FF20520A5FE7002B76
:1006700057D0531B002D78D1002F00D1A1E05D1E73
:10068000012B00D1A2E0FF2B00D1BDE01B2D00DD2E
:10069000C0E02B0070E0791A4A0100D4B6E089016D
:1006A0008D09280000F004FF2B0005388340012548
:1006B0002022401B0130121A1F009340C7405A1ECF
:1006C00093411F432AD000257B0700D108E10F2367
:1006D0003B40042B00D020E77B0100D521E76AE7EF
:1006E00008002022D840D31A99400B005A1E93418B
:1006F0000343FF1A7B0100D5F8E67B0700D15AE7D8
:100700000F233B40042B00D007E754E77B1A1A0065
:100710005B0158D4002A00D0EAE600240020002221
:1007200005E7FE226B1C1A4231D1002D77D1002F34
:1007300000D1A6E0002900D1BCE07A18530100D412
:10074000BAE092010120520AF1E68022D20411435C
:1007500014E738002024D840E31A9F407B1E9F41B5
:10076000074334001500CF1BC4E7FF2A4CD01B2BD6
:1007700050DC8020C004074338002025D840EB1A05
:100780009F407B1E9F41074315007F1800E7FF2B0A
:1007900000D1CAE67F187F087A0700D190E00F22C7
:1007A0003A40042A00D18BE0043751E7002F5DD195
:1007B000002900D086E080220024FF20D203B6E684
:1007C00034000F0044E73400CA1B91E67B185A013D
:1007D00000D47EE0064F5B081F405A0758D00F2216
:1007E0001340042B54D00223043731E7FFFFFFFBF3
:1007F000FFFFFF7D7B0704D00F233B40042B00D07D
:100800008BE62B0024E73400C44625E7CB089C4642
:10081000012303E70531CB089C461300FEE6002FB9
:10082000F2D0002936D08023DB039C4502D39845C3
:1008300000D2C44680226346D2031A435202FF20EC
:10084000520A74E6002900D167E73400C446E5E6A1
:10085000CB1B5A0124D59B019C09200000F028FEE7
:100860002300053883403400013521E7002911D0E9
:100870008023DB039C45DDD39845DBD23400C4469E
:10088000D8E7002900D149E7CB089C460023C5E6FC
:10089000022590E680226346D203FF201A4346E6F3
:1008A000DB089C4634000123B8E6002A15D1002459
:1008B00000203CE60023B1E6D3089C460023ADE6C9
:1008C0001D0078E680224346D2033400FF201A43FD
:1008D0002DE6DB089C460123A0E6D20894469DE65F
:1008E00001207B0100D59EE63900CDE7FF201A00EC
:1008F0001DE6C046F0B54F464646D6464502C0B551
:10090000C30F470099460E1C6D0A3F0E5AD0FF2FA9
:1009100021D08023ED00DB041D43002398469A4636
:100920007F3F74027300640A1B0EF60F002B1FD06A
:10093000FF2B42D080220020E400D20414437F3BEE
:100940004A46FF1A434672400F2B00D99CE071497A
:100950009B00CB589F46002D59D108239846063B53
:1009600074029A467300640A1B0EF60F002BDFD147
:10097000002C3BD101234A464146724019430E29BF
:1009800018D86548890041588F465346022B00D13C
:10099000B9E0032B6ED04A462C00012B40D1002039
:1009A0000024C0052043D2071043E0BCBA46B1463C
:1009B000A846F0BDFF200024F3E7002C20D102233D
:1009C000FF3FD8E7002D05D104239846033B0027BD
:1009D0009A46A6E7280000F06BFD7627431F9D404E
:1009E00000237F4298469A463F1A9AE7200000F07B
:1009F0005FFD431F9C4076235B421B1A00209FE74C
:100A0000032342461A4390460320FC3398E70C2305
:100A10009846093BFF279A4683E703282CD03200EB
:100A200038007F30002847DD630704D00F232340C0
:100A3000042B00D00434230103D53800374B803019
:100A40001C40FE28B6DCA401640AC0B2A9E78024D9
:100A50000022FF20E403A4E78023DB031D4201D032
:100A60001C420BD08024E4032C4364024A46FF203E
:100A7000640A96E74E462C008023DB031C43640285
:100A80003200FF20640A8CE76D01600185422ED29E
:100A90001B230024013F0126290064006D0000296A
:100AA00001DB854201D32D1A3443013B002BF3D1E6
:100AB0006B1E9D412C43B3E703001A3300DA6EE747
:100AC000012321001B1A9E37D940BC400B00611E38
:100AD0008C412343590704D00F211940042900D029
:100AE0000433590113D49B0100205C0A59E71A23EF
:100AF00001242D1ACFE7981E43425841404232004C
:100B00000024C0B24DE74A46FF20002449E70120F7
:100B1000002446E73441000874410008FFFFFFF756
:100B200030B543024200C50F48025B0A440A480040
:100B30009C46120E000EC90FFF2A11D0FF280CD0C0
:100B4000012382420AD1A44508D18D4211D0002A46
:100B500004D163465A1E934100E00123180030BDC2
:100B60000123FF28FAD162462243F7D12B004B40E4
:100B7000F4E70023F2E7C04643025B0A42009C46CA
:100B8000C30F480210B5440A4800120E000EC90FE8
:100B9000FF2A1AD0FF280BD0002A24D16246002851
:100BA0001ED1002C2ED0002A32D1480001380BE093
:100BB000002C2AD1002A02D16246002AF5D08B42AD
:100BC0001DD001205B42184310BD6246002A1CD193
:100BD000FF28F6D1002C18D120008B42F1D1F3E789
:100BE000002AE2D0EBE70028EBD08B42E9D1824229
:100BF000E7DC04DBA445E4D80020A445E4D2580097
:100C00000138E1E7002ADFD0DBE702204042DBE7E2
:100C10008B42D6D1EEE7C04643025B0A42009C46B7
:100C2000C30F480210B5440A4800120E000EC90F47
:100C3000FF2A15D0FF280BD0002A1AD162460028BF
:100C40001DD1002C22D0002A32D1480001380FE0FB
:100C5000002C0CD1002A14D16246002AF5D010E0F5
:100C60006246002A03D1FF2805D1002C1CD00220A7
:100C700010BD00280DD101205B421843F8E7002A7F
:100C8000E3D08B42F7D158000138F1E7002AEFD0CA
:100C9000F1E78B42EFD18242EDDCF4DBA445EAD8E8
:100CA0000020A445E4D2EEE720008B42E3D1DFE749
:100CB0008B42E0D1F2E7C046F0B54646D6464F46F5
:100CC0004402C0B5C30F460098460D1C640A360E98
:100CD00000D1CBE0FF2E6ED08023E400DB041C4368
:100CE000002399469A467F3E6F026B007F0A1B0ED7
:100CF000ED0F002B6DD0FF2B00D1A6E07F3BF61847
:100D00004B460A2B00DD82E08023FF00DB041F43FB
:100D100043466B4098464B460022022B0FDD494666
:100D200001238B40A621C9000B4200D06FE0902127
:100D300089000B4200D0D3E08821194264D1200CF5
:100D40002404240C21003B0C3F043F0C79435C43FA
:100D500047435843E4190B0C1B199F4202D98022C8
:100D60005202801809041A04090C52189401611ED9
:100D70008C411B0C920E1B1814439B011C431B013E
:100D800000D5CDE030007F30002800DCAEE0630706
:100D90000BD00F2332002340042B06D00434230150
:100DA00003D580321000684B1C40FE2866DCA3018E
:100DB0005B0AC0B21EE0002C00D08BE008239946ED
:100DC000063B6F029A466B007F0A1B0EED0F002B4D
:100DD00091D1002F61D14A4601231A4391460A2A34
:100DE00015DC43466B4098464B460122022B96DCAD
:100DF00000200023C00518434346DD072843E0BC1C
:100E0000BA46B146A846F0BDA8463C0092465346B5
:100E1000022B33D0032B11D0012BE9D030008030CE
:100E2000721C002863DD6307B9D00F232340042B15
:100E3000B4D1B4E70F2A78D0A8463C008023DB0366
:100E400023435B02FF205B0AD4E7FF36002F2FD13C
:100E500002234A4613430A2BD9DC42466A40904695
:100E60004A46002A0AD09946022258E7002C08D1A7
:100E700004239946033B00269A4635E7FF200023CA
:100E8000B8E7200000F014FB7626431F9C400023A7
:100E9000764299469A46361A26E7380000F008FB53
:100EA0004B46361A763E0A2BB1DC053887402FE7D1
:100EB00003234A461A4313000A2ABBDC42466A400F
:100EC000904601229A40882113000322194200D142
:100ED00035E799E70C239946093BFF269A4603E735
:100EE000002398468023FF20DB0383E732000300C2
:100EF0001A3300DA7CE79E320123210094401B1A4A
:100F0000D940621E94410C43630704D00F23234051
:100F1000042B00D00434630111D50120002369E7BC
:100F2000012362081C40144378E78023DB031C4242
:100F300084D01F4282D1A846FF203B435AE7A30139
:100F400000205B0A56E7C046FFFFFFF7F0B5C64634
:100F500047027B0A4A0245009C46C40F530A4800D8
:100F6000984600B52D0EBF09000ECE0F9209FF283E
:100F700000D171E001235E402B1AB4423CD0002B1B
:100F800000DC9CE1002800D1A3E0FF2D00D18BE024
:100F90008021C9040A431B2B00DCFBE0013F7B01DD
:100FA00000D47BE001277F42BF01B9090E00080091
:100FB00000F07EFA330005388340854200DCD2E041
:100FC000B44F2D1A1F405A0700D1F6E00F221340EC
:100FD000042B00D1F1E004377B0100D4EDE0681C64
:100FE000FE2D00D090E0FF200022C0051043E40752
:100FF000204380BCB846F0BD002B00DC77E1002820
:101000006FD1002A4CD0591E012B00D146E1FF2B95
:101010004AD01B296ADC0B0011002020D940C31ADA
:101020009A40531E9A410A43BF188023DB041F4293
:1010300000D1BBE00135FF2DD5D0974A790811408A
:10104000012217400F437A0700D09AE01F42C6D111
:10105000FB089C462B004DE02B00FF3B002A2ED1C5
:1010600001214E40B44200D1B4E0002B50D0002DFD
:1010700000D0EAE0FF23002F00D1FAE0591E012B37
:1010800000D15CE1FF2B00D13DE11B2900DC22E116
:10109000571E340005007B0100D583E72B00043781
:1010A000FA089446FF2B25D16346002B9BD0802263
:1010B0006346D2031A435202FF20520A95E7B44214
:1010C00000D1A4E0002B23D0002DD3D0C44634009F
:1010D000EDE7002AE4D0012B39D0FF2BE4D0013B0F
:1010E00059E7FF2DE0D01B2B00DCA6E00537FB08FD
:1010F0009C462B0062465202520AD8B275E7012084
:101100003A007B0100D43FE1C0B2BA01520A6CE759
:10111000FE216B1C194252D1002D00D0ACE0002FF3
:1011200000D11AE1002A00D1F4E08021BB1AC904E1
:101130000B4200D13CE10124D71B3440002F46D0A4
:1011400001200F42E1D1FB089C460023D2E7BF1AE1
:101150007A0100D4DAE0BD01A80900F0A9F9AB09D1
:101160000538834001252022401B0130121A1F0040
:101170009340C7405A1E93411F4328D000257B0748
:10118000BDD00F233B40042B00D024E77B0100D5CA
:1011900025E75DE711002020D940C31A9A40531E6D
:1011A0009A410A43BF1A7B0100D5FDE67B0704D0B4
:1011B0000F233B40042B00D00DE72B0070E7BB1A38
:1011C00019005B0162D4002900D0EFE60024002062
:1011D00000220AE7002B1CD0002D00D003E7FF23DC
:1011E000002F47D0591E012B58D0FF2B00D18BE088
:1011F0001B2900DD90E00B0039002025D940EB1AB7
:101200009F407B1E9F410F430500BF180DE7002B39
:1012100017D1FE216B1C19421BD1002D00D080E09C
:10122000002F00D1AEE0002A74D0BA18530100D4C8
:10123000AAE092010120520AD7E68021C9040A439C
:10124000EAE6002DCBD0C44631E73400FF2000226F
:10125000CBE6FF2B00D1C6E6BA185208510705D0DD
:101260000F21171D1140042900D019E7D208944618
:1012700040E73400170013E7002F75D1002A00D093
:101280009DE080220024FF20D203AEE60124D11B82
:1012900034408BE6FFFFFFFBFFFFFF7DBB185A01C9
:1012A00000D494E04D4A5B081A40590700D192E0FF
:1012B0000F210B40042B6ED00223171DF0E6002BEC
:1012C00000D125E7411B0B00002D00D1D3E6802380
:1012D000DB041F43D9E63B002024CB40611A8F403A
:1012E000791E8F411F4334000500D71B5BE7002B9D
:1012F0008FD0431B002D00D172E71B2B0CDC80210B
:10130000C9040F4378E73400C446CDE6FB089C4689
:101310000123EFE60023EDE60532D3089C460300E7
:10132000E8E6002FF0D0002A37D08023DB039C456D
:1013300000D2BCE6984500D3B9E6C446B7E6D31B55
:101340005A0130D59B019C09200000F0B1F8230020
:10135000053883403400012505E7002A18D0012410
:101360000023C4463440C5E6002A16D08023DB03A0
:101370009C4500D29BE6984500D398E60124C446DC
:10138000344094E6002A04D0D3089C460023B1E6FA
:101390000024002029E6023B68E780226346D2034E
:1013A000FF201A4321E6DB089C4634000123A1E616
:1013B000002B00D10AE7DB089C4600239AE6802236
:1013C00043460124D203FF201A4334400DE6DB08D4
:1013D0009C4601238EE6022348E7C046FFFFFF7DBF
:1013E00041024200C30F490A0020120E7E2A03DD8B
:1013F0009D2A02DD094A98187047802000040143A5
:10140000952A07DC9620821AD1404842002BF3D15E
:101410000800F1E7963A9140F7E7C046FFFFFF7FEB
:1014200070B5002813D0C317C5185D40C40F28003D
:1014300000F03EF89E2301001B1A07280EDD082845
:1014400030D008398D406D026D0AD8B201E0002419
:101450000025C0052843E407204370BD042816DD9D
:10146000052801D0421F9540104A2A4068070AD03B
:101470000F202840042806D00432500103D50B4B1E
:101480001A409F235B1A9201550AD8B2E1E7020085
:1014900028001B329040421E90410522521AD5402E
:1014A0000543E1E76D0296206D0AD2E7FFFFFFFBDF
:1014B0001C2101231B04984201D3000C10391B0A84
:1014C000984201D3000A08391B09984201D3000948
:1014D000043902A2105C40187047C046040302029F
:1014E00001010101000000000000000010B500290A
:1014F00003D1FFF7DDFF203002E00800FFF7D8FF3F
:1015000010BDC04610B500F03DFF00F003F9002803
:1015100004D1FA20800000F04FFFFAE700F034F920
:10152000002808D1FA20800000F046FFFA20800051
:1015300000F042FFF6E700F04BF90028F2D010214E
:10154000184800F05FFB0028ECD000F06FF900288D
:10155000E8D000F097F90028E4D000F057FC00280C
:10156000E0D000F003FD002812D000F0DFFD0028DD
:101570000ED000F07DF900280AD000F067FB0028AB
:1015800006D000F005FD0121002002F039FDF8E74A
:10159000FA20800000F010FFFA20800000F00CFF1D
:1015A000F6E7C046B000002010B5024802F0C8FBC4
:1015B00010BDC046100000208023026810B5DB0576
:1015C0009A4200D010BD00F0CDFDFBE710B504003D
:1015D000002A03D0FF231940FFF7F8FF200010BDB9
:1015E0007047C04600B595B03422002107A8FFF728
:1015F000EDFF142200216846FFF7E8FF022306935F
:10160000013B099306A80F330A9300F031FF00282D
:1016100002D0002015B000BD0F22012300920193DB
:10162000002200230490002168460292039301F0F7
:101630000BFA0028EDD1034B034A1A6000F018FEA4
:101640000120E7E7000000200024F400F0B50124A9
:101650002E4B89B0DA6AA0202243DA62DA6A1226B7
:1016600022400092009A0222D96A04251143D962CD
:10167000DB6A02A91A400192019B8023C0059B00EE
:1016800002930396059404940695802701F0B6FA18
:10169000A020FF0002A9C0050297039605940494B8
:1016A000069501F0ABFA02A9194802970396059432
:1016B0000494069501F0A2FA802302A91B011448A4
:1016C0000293039605940494069501F097FA0C2270
:1016D000002104A8FFF77AFFA0200323102202A90B
:1016E000C0050292039301F089FA0C22002104A89C
:1016F000FFF76CFFA0202022032302A9C00502925D
:10170000039301F07BFA012009B0F0BD0010024004
:101710000004005010B5FFF765FF041E15D0FFF759
:1017200095FF80220A4B9203996B0A439A638022A9
:10173000996BD2030A439A638022996B92050A43FC
:1017400001219A639A6B0A439A63200010BDC04638
:1017500000100240FA2110B50A4B82B00400890043
:101760001868FEF7ADFC60430190019B5A1E019280
:10177000002B05D0C046019B5A1E0192002BF9D1C7
:1017800002B010BD0000002010B50E4B0E4C01221F
:1017900023600E4B200063600023E260A36023619E
:1017A0006361A361E361236201F034FC0300002064
:1017B000002B06D10021200002F018FA43425841C4
:1017C000C0B210BD00580040640000205B3D3000F6
:1017D00010B5134B134C2360134B20006360202380
:1017E000A3601F3BE360002323616361A361E361A6
:1017F000236201F00FFC002801D0002010BD002161
:10180000200002F0F3F90028F7D10022012117305F
:1018100002F0A4FB172002F0CDFB0120EEE7C0464A
:1018200000540040B00000205B3D300080230E4893
:10183000DB0510B503600D4B132243600023C2602B
:1018400083600361436102F0F7F90023002808D1A7
:10185000002202210F3002F081FB0F2002F0AAFBD0
:101860000123180010BDC046100000203F060000F4
:1018700010B5034802F02AFA43425841C0B210BDE5
:101880001000002010B582B0082200216846FFF742
:101890009DFE0F4C0F4B2000236002F0DFFA002862
:1018A00002D0002002B010BD0022002369462000B3
:1018B0000092019302F0E6FA0028F2D11022694664
:1018C000200002F0DFFA43425841C0B2EAE7C046C6
:1018D000500000200074004010B5040088B01422AD
:1018E000002102A8FFF772FE2368224A934204D027
:1018F000214A934220D008B010BD80221F4B920392
:10190000996BA0200A439A630122D96AC00511434A
:10191000D962DB6A02A91A400092C022009B1223FE
:10192000D20002920393012201230492059304231F
:10193000069301F063F9DEE78022104BD203996B26
:101940000F480A439A630222D96A1143D962DB6ABB
:1019500002A91A400192C022019B12231201029295
:10196000039301220123049205930423069301F0BB
:1019700045F9C0E700540040005800400010024004
:101980000004005080230268DB059A4200D07047B3
:101990000121024A936B0B439363F8E70010024066
:1019A00010B5040088B01422002102A8FFF70EFE33
:1019B0000E4B22689A4201D008B010BD80220C4B19
:1019C0009205996BA0200A439A630122D96AC00547
:1019D0001143D962DB6A02A91A400192019B3022AD
:1019E00003230292039301F009F9E5E70074004034
:1019F0000010024070B5036805001E209847041EC1
:101A000002D10320AB689847200070BD0E239C468E
:101A1000F0B5C64660278C440500E0460C0000B5D2
:101A20007F4282B07F1A01AE38192B68C0B2984746
:101A300000280BD1022130006B689847002805D19F
:101A400033885BBA238002344445EDD102B080BCB8
:101A5000B846F0BD70B50368040082B000200E00E7
:101A6000984700280ED101AD0321280063689847EC
:101A7000002807D16A782B7812021B041343AA7836
:101A80001343336002B070BD10B503680800984777
:101A900010BDC046F0B5CE46474680B50600894623
:101AA00085B0002800D175E00193002B00D171E0D2
:101AB0000C98002800D16DE07389B0891B02D71AF9
:101AC000FC173A0023000021FEF7E0FB0023A046AC
:101AD000CC176402620A12184B411100FA205B0213
:101AE000CA0D9A18C00012180C98434602600021D3
:101AF0003A00F088FEF7CAFB7F23CA171A40140089
:101B00000025001969414B06CD110021C4091C199B
:101B100073884A461804001969410023FEF7B6FB92
:101B20000025CB17DB02DC0A00196941CB02440D0A
:101B30003A0030891C194D1543460021FEF7A6FBDB
:101B400002900391039B3F27DA17110039400A00E6
:101B500002980399002380185941B6888F0682099C
:101B60008B117004F10BBA1812184B41A41A9D4145
:101B70000023E91749044A0C12196B411100002097
:101B80005B04CA0B9A18019B1A6005B0C0BCB94629
:101B9000B046F0BD0120F8E710B5FFF7DBFD10BD42
:101BA0000F22012300B585B06A445B421070EC211E
:101BB00000930448023301F085FA431E9841400027
:101BC00005B000BD6400002000B5020083B000280D
:101BD0000CD08BB20121494200910548ED3101F052
:101BE0004FFB431E9841400003B000BD0120FBE7BE
:101BF00064000020020030B5014B32CB32C230BD50
:101C000028410008002805D00A4B49001860836865
:101C10008B4201D0002070470023074A0120137037
:101C2000064A1370064A1360064A13600122064BE7
:101C30001A70F0E7200100201001002004010020AC
:101C400000010020FC0000201D0100200D4B70B59C
:101C50001C78002C10D00C4B186800280CD00B4BB3
:101C60001D001B78002B01D0200070BD084A1370A6
:101C700001F0D0FC002801D00024F5E701232B70EF
:101C8000F2E7C0461D010020200100201C010020B9
:101C900010010020014B18607047C0460001002071
:101CA00000280AD0064A1378002B04D00549096899
:101CB000016000211170180070470023FBE7C04647
:101CC00010010020140100200122034B1860034B77
:101CD0001A70034B186070470801002004010020AF
:101CE0000C010020174B70B50200050018680C00AD
:101CF000904200D070BD002913D00129FAD1124BB7
:101D00001B68002B16D09847104B1860104B1C70A6
:101D100080231049042208609B04280001F090FBF6
:101D2000E8E70D4B0422197080230C499B0401F055
:101D3000FBFBDFE7064B00201B78002BE8D0034BB2
:101D40001868E5E720010020FC00002008010020C1
:101D5000040100200C0100201001002018010020C7
:101D60000B4B10B51B680400834200D010BD01224C
:101D7000084B1868084B1860084B1A70084B1B6812
:101D8000002B00D09847200001F044FCEEE7C0464D
:101D90002001002018010020140100201001002063
:101DA00000010020044B10B51B68834200D010BD19
:101DB000180001F02FFCFAE720010020084B10B5B5
:101DC0001C68844200D010BD200001F00DFF054BBF
:101DD0001B78002BF7D0200001F01CFCF3E7C04675
:101DE000200100201C010020064B10B51B68834217
:101DF00000D010BD044A1278002AFAD0180001F071
:101E000009FCF6E7200100201C01002070B5154CEC
:101E1000154B22689A4201D0002070BD002120009D
:101E200002F054F80028F7D11021200002F04EF8FB
:101E30000028F1D10D4D2B78002B0ED0002300226D
:101E40000021200002F074F82B78002B05D000232D
:101E500000221021200002F06BF8012301202B70DA
:101E6000DBE7C04650000020007400402401002041
:101E7000194B10B5041C1878002828D00021201C0C
:101E8000FEF7BCF9002825D11449201CFEF7CAF939
:101E900000281DD1201C1149FEF72CFD1049FEF72A
:101EA0000BFFFC218905FEF7F9FAFEF717FA8022ED
:101EB000031C80B25201904200D30A4B9BB2002215
:101EC0000021094802F034F843425841C0B210BD25
:101ED0000248E0E70023F2E72401002033335340B7
:101EE00000F07F45FF0F000050000020194B10B597
:101EF000041C1878002828D00021201CFEF77EF949
:101F0000002825D11449201CFEF78CF900281DD18A
:101F1000201C1149FEF7EEFC1049FEF7CDFEFC2116
:101F20008905FEF7BBFAFEF7D9F98022031C80B2BF
:101F30005201904200D30A4B9BB200221021094863
:101F400001F0F6FF43425841C0B210BD0248E0E73D
:101F50000023F2E7240100203333534000F07F4593
:101F6000FF0F0000500000207047C04610B500F081
:101F7000ADF8041E05D00448FFF78CFE0122034B88
:101F80001A70200010BDC046691F000838010020EB
:101F900070B5404B82B01B78002B01D102B070BDF0
:101FA0003D4B18001D0000F0CDF80028F6D03B4A4C
:101FB0001368D91C01D8013313602A68384B140008
:101FC0009A4253DC374B9C424EDB2000FFF728FA45
:101FD0003549FEF78FFC354B061C686898423EDC9D
:101FE000334B984239DBFFF71BFA2F49FEF782FC8F
:101FF000051C2000FFF768FE01A8FFF751FE002135
:10200000301CFEF7FBF8002835D12A49301CFEF7BA
:1020100009F900283AD1301C2649FEF76BFC264905
:10202000FEF74AFEFFF724FF2449281CFEF7E6F8D6
:10203000002829D12249281CFEF7F4F8002827D1CE
:10204000281C2049FEF72AFA1F49FEF753FC1A49BB
:10205000FEF732FEFFF74AFFA0E71800C3E71800BB
:10206000134B9842BFDAF8E71C00AEE71C000D4B9B
:102070009C42AADAF8E70020FFF7FAFE0F49281C75
:10208000FEF7BCF80028D5D00020E3E70948C3E7F5
:102090000B48D6E7380100202C0100202801002041
:1020A00020A10700E05EF8FF0000C842A086010002
:1020B000B03CFFFF00803B45333353400000A0C1DC
:1020C0000000AA420000A0410000D24270B5124DAB
:1020D00084B06846FFF78EFD6C462B0007CC07C323
:1020E0000E4E3478002C08D0002201240C4B1A70BC
:1020F0000C4B1A72200004B070BD2800FFF77AFC68
:102100000028F7D128000849FFF780FC0028F1D10A
:1021100001233370E8E7C046680100205501002024
:102120005401002048010020580100200122034BE7
:1021300001201A700022024B1A60704754010020DF
:102140003C010020030030B5002806D0044A107A74
:10215000002801D032CA32C330BD0020FCE7C0469F
:102160004801002030B5394C83B02378082B60D863
:10217000374A9B00D3589F460823237003B030BDD5
:10218000344B354D1A68354B354819682B1D009373
:102190002B00FFF77FFC0028EED101232B72237068
:1021A000ECE700222C4B1A722E4A1368591C03D0FC
:1021B000013313600A2BE1D900231360013323702C
:1021C000DCE726492848FFF745FC0028D4D1042342
:1021D0002370D3E740212448FFF756FC0028CBD1D9
:1021E0000223012223701F4B1A60C7E71D4A1368A0
:1021F000002B21D103232370C0E71A4A1368002B58
:102200001FD106232370B9E750211748FFF73CFC84
:102210000028B1D1052301222370124B1A60ADE7CB
:102220000C491148FFF716FC0028A5D1072323709D
:10223000A4E700232370A1E7013B1360002B9DD18D
:10224000D8E7013B1360002B98D1DAE75401002056
:10225000B041000840010020480100204401002056
:10226000580100203C010020680100207047C04652
:102270000C23294A10B5D1680B40042B16D0082B2B
:1022800012D0002B1AD18020536800021B045B0F70
:1022900001339840204B214ADB6821491B061B0F64
:1022A000D35CD840086010BD1E48F3E710681E4B91
:1022B000C006C01718401D4BC018EBE7D3681C4878
:1022C000D1689B021B0FC35C0902D068890F0131E2
:1022D000C0030CD41268D20613D55A01D21A900149
:1022E000801AC000C0180002FDF7EAFED2E75A01CA
:1022F000D21A9001801AC000C0184002FDF7E0FE1B
:10230000C8E75A01D21A9001801AC000C018800292
:10231000FDF7D6FEBEE7C04600100240E0410008CF
:102320000400002000127A0000E548FF0024F400B9
:10233000D44100087047C04670B50500FA200E4B26
:1023400080001978FDF7BCFE0C4C01002068FDF7F9
:10235000B7FE01F03BFE00280CD10130032D00D95F
:1023600070BD02380022290001F0F8FD044B002066
:102370001D60F5E70120F3E70800002004000020BD
:102380000C0000200221084A10B5136803200B43FB
:102390001360FFF7D1FF041E02D00124200010BDFE
:1023A000FFF7C8FFFAE7C04600200240014B18685B
:1023B0007047C0467401002070B50400FFF7F6FFB7
:1023C0000500631C02D0044B1B78E418FFF7EEFFF6
:1023D000401BA042FAD370BD080000200C231E4908
:1023E00010B5CA681340082B27D00C2B0CD0042B37
:1023F00025D110200B68184043425841174B4042EA
:102400001840174BC01810BDCB6816489C46930265
:102410001B0FC05C63461202920F541CDB0316D4E0
:102420000B68DB0615D50E4A00230021FDF72EFFB1
:1024300022000023FDF70AFFE5E70B48E3E78020D1
:102440004B6800021B045B0F01339840DBE7064A30
:10245000EAE7064AE8E7C04600100240001BB70062
:1024600000093D00D441000800127A000024F40065
:10247000F0B5CE46474680B5040083B0002800D1B1
:1024800040E10C25CC4BDA681540DA6880235B020A
:102490001A4003689146DA0731D5082D00D1ABE127
:1024A0000C2D00D1A4E18021636849028B4200D148
:1024B000B1E1A022D202934200D143E2BE4EBF4816
:1024C00032680240326032680A400192019ABC4987
:1024D00032680A403260002B00D0A0E1FFF766FFAF
:1024E00080278046BF0206E0FFF760FF4346C01A20
:1024F000642800D9CFE133683B42F5D123689A07BD
:102500002ED5E3689A0605D52021AB488B43026897
:102510000A430260042D00D1FEE00C2D00D1F7E04B
:10252000A54E002B00D1CCE10921326804278A4353
:1025300013433360FFF73AFF804606E0FFF736FFAC
:102540004346C01A022800D9A5E133681F42F5D0DE
:10255000726823699B491B020A4013437360236816
:10256000DA062ED5002D00D0FDE0934B1B689B05AD
:1025700003D5E369002B00D1C4E08F48924942683B
:10258000636A0A401A4342604168226A0902090AE2
:1025900012060A43426080225B0B013312029A400A
:1025A0001300C16889480A06120F825C884ED34026
:1025B0003360884B1868FFF7BFFE002800D0A2E008
:1025C00023681A0718D563697B4E002B00D164E19C
:1025D0000122336D022713433365FFF7E7FE804680
:1025E00006E0FFF7E3FE4346C01A022800D952E195
:1025F000336D1F42F5D023685A0741D58023002050
:102600006D4A5B05916B8146194204D1916B0B4376
:1026100093630123994680276F4E7F0033683B42C6
:1026200000D128E18022A3685200934200D1CEE17C
:10263000002B00D105E1A021C9008B4200D1E7E1C8
:102640005D4B66491A6D0A401A651A6D64490A4065
:102650001A65FFF7ABFE80278046574EBF0007E0A4
:10266000FFF7A4FE4346C01A5E4B984200D912E120
:10267000336D3B42F4D04B46012B00D16CE1236813
:102680009B0620D5A3694C4E002B00D142E10122CC
:10269000B36802271343B360736B134373638023E0
:1026A000514A9B01116A0B431362FFF77FFE80467C
:1026B00006E0FFF77BFE4346C01A022800D9EAE095
:1026C000B3681F42F5D0A36A002B19D00C2D00D19E
:1026D00082E1022B00D146E1374C444A2368802531
:1026E00013402360FFF762FEAD04060005E0FFF72C
:1026F0005DFE801B022800D9CDE023682B42F6D175
:10270000002000E0012003B0C0BCB946B046F0BDD7
:102710004A46002A00D003E7274A1268520701D52B
:10272000002BEFD0244E2269716826481202014026
:102730000A430921726032688A4313433360FFF70A
:102740004DFEF368214A1B061B0FD35C2049D8407D
:10275000204B08601868FFF7EFFD0028D3D12368ED
:10276000DA0600D42DE7E369134E002B00D1BCE05C
:10277000802332685B0013433360FFF717FE802726
:102780008046BF0006E0FFF711FE4346C01A02284C
:1027900000D980E033683B42F5D073680A4A1340A1
:1027A000626A134373607268236A12021B06120A7C
:1027B00013437360236804E700100240FFFFFEFF2D
:1027C000FFFFFBFFFFE0FFFFFF1FFFFFE0410008EF
:1027D000040000200C00002000700040FFFEFFFFFE
:1027E000FFFBFFFF8813000000000140FFFFFFFE1A
:1027F0004A46002A00D156E68A4A1268920303D557
:102800006268002A00D17DE79A07A9D5E3689A0695
:1028100000D579E681E683490A6813430B60FFF728
:10282000C5FD802680467F4FB60205E0FFF7BEFD5E
:102830004346C01A64282ED83B683342F6D023683A
:102840005DE6784E784A336D802713403365336DEB
:10285000764ABF0013403365FFF7A8FD804606E0C7
:10286000FFF7A4FD4346C01A714B984213D8336D4D
:102870003B42F5D1FFE633683B433360FFF796FDFB
:10288000804633683B4200D0CCE6FFF78FFD4346DD
:10289000C01A6428F5D9032035E70122336D0227D9
:1028A00093433365FFF782FD804605E0FFF77EFD29
:1028B0004346C01A0228EED8336D1F42F6D1236872
:1028C0009AE601223368042793433360FFF76EFDD5
:1028D000804605E0FFF76AFD4346C01A0228DAD8B1
:1028E00033681F42F6D123683AE633684E4A8027A0
:1028F00013403360FFF75AFDBF00804605E0FFF745
:1029000055FD4346C01A0228C5D833683B42F6D16C
:10291000236856E60122B36846499343464AB360AA
:10292000136A02270B401362FFF740FD804605E063
:10293000FFF73CFD4346C01A0228ACD8B3681F42DB
:10294000F6D1C0E68022374BD202186802431A60E3
:102950001A680A431A6062E7324A3849936B0B409F
:10296000936323688CE62F4D354A2B6880261340ED
:102970002B60FFF71BFDB604070004E0FFF716FD10
:10298000C01B022887D82B683342F7D1216BE36A3A
:10299000EA680B432B490A401343626B80241343BC
:1029A000EB6080232A685B0413432B60FFF7FEFC77
:1029B0001C4D0600A40405E0FFF7F8FC801B02286C
:1029C00000D968E72B682342F6D000209BE6154A21
:1029D000116D0B4313653CE6012B00D192E680227A
:1029E000104BE16ADB6852021A408A4200D089E645
:1029F000F022216B92031A408A4200D082E6C02264
:102A0000606B12041340181A431E9841C0B27AE654
:102A1000044B0139186DFF3901431965196D0A43DB
:102A20001A6516E600100240FFFEFFFFFFFBFFFFE6
:102A300088130000FFDFFFFF00000140FFFFFFEFF2
:102A4000FFFFFFFEFFFF02FFF0B5C64606000C00C9
:102A500000B500285FD00122604D2B6813408B42E7
:102A60005BD333689A0706D5F0205D49CA68824374
:102A7000B0680243CA60DB0727D5594B72681B68F0
:102A8000022A46D0032A00D189E0012A00D19FE022
:102A90009B0540D50321524DEB688B431343EB60FC
:102AA000FFF784FC73680700022B5AD0032B64D015
:102AB000012B06D16DE0FFF779FC4A4BC01B984211
:102AC0003ED80C22EB681A42F5D10122434D2B6807
:102AD0001340A34268D833685A0706D54049424894
:102AE000CA680240F0680243CA601B072AD4FFF795
:102AF00075FC3B4B3D4ADB683D491B061B0FD35C15
:102B0000D8403C4B08601868FFF716FC80BCB846FC
:102B1000F0BD9B03BED40120F8E72B680127934347
:102B20000B432B60FFF742FC80462B683B40A342DF
:102B300097D0FFF73BFC4346C01A2A4B9842F4D982
:102B40000320E3E726493369CA682B48DB000240CB
:102B50001343CB60CBE7FFF729FC224BC01B984205
:102B6000EED80C22EB681340082BF4D1ADE7FFF749
:102B70001DFC1C4BC01B9842E2D80C22EB68134092
:102B80000C2BF4D1A1E7FFF711FC164BC01B9842A8
:102B9000D6D80C22EB681340042BF4D195E79B01A7
:102BA00000D577E70120B1E72B68012493432B6020
:102BB000FFF7FCFB80460B4F2B681C4200D18AE7D5
:102BC000FFF7F4FB4346C01AB842F5D903209DE74E
:102BD0005B0700D55EE7012098E7C0460020024071
:102BE0000010024088130000FFF8FFFFE0410008DA
:102BF000040000200C000020FFC7FFFFF0B54E4688
:102C0000DE4657464546E0B50C688946002383B04A
:102C1000002C7BD00122A4469246774A019251466D
:102C2000624699400A40904662460A426AD04A4645
:102C30005268102514000326AC435D00AE40AB463D
:102C40004D46AF685D460096661EAF40012E64D9C2
:102C5000C168009EB1433943C16003211140A940BE
:102C60000468B44321430160802149050A4249D0E8
:102C70005446019D0F26696B2143696303251D405E
:102C8000AD00AE405D4C9908890009198C68B443C9
:102C9000A026F605B04216D0594EB04200D19BE0B6
:102CA000584EB04200D19BE0574EB04200D18FE069
:102CB000564EB04200D197E0554EB04200D197E059
:102CC0000626AE4034438C6052490968D40367D469
:102CD0004446A1434F4C21606168940367D4444645
:102CE000A1434C4C6160A168D40267D44446A1431F
:102CF000484CA160E168920267D40A0041468A43C9
:102D00004449CA6062460133DA4088D103B0F0BC5E
:102D1000BB46B246A946A046F0BD86683500009E77
:102D2000B543A8464D46EE685D46AE4045462E4347
:102D300086604668009D8E43110999403143416089
:102D4000C168A9433943C160022C0ED00168009CC0
:102D50000133A143032422405C46A2400A4302609F
:102D60006246DA4000D05AE7D0E707270F211F401C
:102D7000BF00B940DA0892008218166A01338E4308
:102D800049460969B9403143116259468C4002688D
:102D9000AA43144362460460DA4000D03FE7B5E737
:102DA000444621431B4C21606168940397D54446F7
:102DB0002143184C6160A168D40297D54446214351
:102DC000144CA160E168920297D542460A4397E706
:102DD0000326AE40344376E75646AE40344372E7AE
:102DE0000226AE4034436EE70426AE4034436AE721
:102DF0000526AE40344366E7001002400000014063
:102E00000004005000080050000C0050001000505A
:102E1000001C00500004014070B516000268040058
:102E200093690D009B0605D44B1C23D12021936987
:102E30001942FCD01023D3611033D36193699B07EF
:102E400001D500239362012391690B421FD053687F
:102E500016490B4053600422636C1343636441239F
:102E60001C32E25400220133E254402300220120AC
:102E7000E25470BDFFF79AFA801B85420BD3002DF8
:102E800009D02021226893691942F3D0D2E79169D1
:102E90000B439361DBE72022636C1343636441239C
:102EA000E25400220133E254DFE7C04600E800FEAE
:102EB000F8B510234746CE469846103380B5050036
:102EC0000C001600042799462B689A69174222D1F4
:102ED00041469A69114209D0320021002800FFF7CB
:102EE0009BFF0120C0BCB946B046F8BD49469A696F
:102EF000114212D1FFF75AFA801BA04201D8002CD0
:102F0000E2D120226B6C13436B644123EA5400220C
:102F1000013BEA54E5E70020E4E79A69174203D051
:102F20002A8D0020002ADDD12021D9615A68064867
:102F300002405A60002341226B64A9540132AB5411
:102F4000023AAB54CDE7C04600E800FEF8B50400F5
:102F50000D001600022723689A69174227D1102115
:102F60009A6911421DD16A1C13D0FFF71FFA801B0A
:102F7000A84201D8002DEED12022636C1343636474
:102F80004123E25400232232A354023AA3540120E5
:102F9000F8BD10200E399A69114208D19A69104281
:102FA000F9D0320029002000FFF736FFEFE70020BC
:102FB000EEE7C0461023F0B5C64605000C0016002B
:102FC0002027984600B52B689A6917421FD14246C0
:102FD0009B691A4208D0320021002800FFF71CFF2D
:102FE000012080BCB846F0BDFFF7E0F9801BA0428D
:102FF00001D8002CE7D120226B6C13436B64412372
:10300000EA5400232232AB54023AAB54E8E70020E2
:10301000E7E7C04610B5041E4BD04123C35C002B2C
:1030200042D0412324220121E2542368A0681A6877
:103030008A431A60204962680A401A619A681F49E7
:103040000A409A60E268012A29D0842109020143DA
:103050009960022A02D1802212015A605968184AE6
:1030600000200A435A60DA6814490A40DA6061694C
:1030700022690A43A16909020A43DA60216AE26906
:103080000A4301211A601A680A431A600023412288
:103090001F316364A15401322363A35410BD802205
:1030A000120202439A60D9E740228354FEF714FCCF
:1030B000B7E70120F2E7C046FFFFFFF0FF7FFFFF09
:1030C00000800002F0B54F46D6464646984641235A
:1030D000C0B5C35C040089469246089F202B00D0EF
:1030E00088E02033C25C012A00D183E00122C2546F
:1030F000FFF75CF9802506002D0205E0FFF756F981
:10310000801B192800D97BE02268936919002940A7
:103110002B42F3D141232120E05401331138E054F4
:10312000534663624346616463854B4661639B0516
:10313000618D980D8046FF2900D97BE0FF23608DCB
:1031400051682085034040461B0403434648014024
:103150000B4346490B435360638D8025002B03D1FD
:1031600033E0638D002B30D0320039002000FFF7B0
:10317000EDFE00284FD1636A22681978013391620D
:103180006362638D013B6385238D618D013B9BB23F
:1031900023850029E5D0002BE3D193691D4204D19A
:1031A0007B1C3AD193691D42FCD0638DFF2B4BD918
:1031B000FF232F49238553680B4041460B432D497C
:1031C0000B435360638D002BCED1320039002000B9
:1031D000FFF7F0FE00281ED120212368264DD9617B
:1031E0005A682A405A604123E1540133E054023BBB
:1031F000E05400E00220E0BCBA46B146A846F0BD6B
:103200002022636C134363644123E254002322327F
:10321000A354023AA3540120EDE7FFF7C7F8801B3F
:103220008742EDD3002FEBD08021226893691942A9
:10323000F3D0BAE7FF230C49238553680B400F49AD
:1032400003430B43536087E7608D0949536820852A
:103250000B4041460B43FF21014009040B438021F1
:1032600089040B4353607CE7009800FC0020008237
:10327000009C00FC0000FF0100E800FE0020FF8130
:10328000F0B54F46D646464698464123C0B5C35C86
:10329000040089469246089F202B00D08AE0203304
:1032A000C25C012A00D185E00122C254FFF77EF8FA
:1032B000802506002D0205E0FFF778F8801B19280D
:1032C00000D97DE022689369190029402B42F3D18F
:1032D00041232220E05401331238E0545346636204
:1032E0004346616463854B4661639B05618D980D20
:1032F0008046FF2900D97DE0FF23608D516820853D
:10330000034040461B040343474801400B434749E1
:103310000B435360638D8025002B03D135E0638D13
:10332000002B32D0320039002000FFF7C1FD002809
:1033300051D123685A6A636A1A70636A628D0133D5
:10334000013A6362238D6285013B628D9BB22385C6
:10335000002AE4D0002BE2D1226893691D4204D1F7
:103360007B1C3AD193691D42FCD0638DFF2B4BD956
:10337000FF232F49238553680B4041460B432D49BA
:103380000B435360638D002BCCD1320039002000F9
:10339000FFF710FE00281ED120212368264DD96199
:1033A0005A682A405A604123E1540133E054023BF9
:1033B000E05400E00220E0BCBA46B146A846F0BDA9
:1033C0002022636C134363644123E25400232232BE
:1033D000A354023AA3540120EDE7FEF7E7FF801B58
:1033E0008742EDD3002FEBD08021226893691942E8
:1033F000F3D0BAE7FF230C49238553680B400F49EC
:1034000003430B43536085E7608D0949536820856A
:103410000B4041460B43FF21014009040B4380212F
:1034200089040B4353607AE7009800FC0024008273
:10343000009C00FC0000FF0100E800FE0024FF816A
:10344000F0B5C646170041220E00282100B5984667
:10345000835C04001940282903D0012080BCB846B1
:10346000F0BD002E32D0002F30D0FA25835C0368E7
:103470001868A84318604020255C012D2AD001253A
:103480002554A05C2A2827D041222921A1540132A9
:103490000939A154002262645A6820490A405A60DE
:1034A0006785628D666222854246E2621C4A6263DB
:1034B0009A69D20301D50822DA6140220021A15481
:1034C0001A68FA310A4300201A60C7E780239B007C
:1034D0006364C2E70220C1E7A25C114028394A1E9A
:1034E0009141AF22494291431A6845390A401A6016
:1034F0001A681204C8D51A680849E06B0A401A60B5
:103500000028C1D0074B836300F0B8FD002802D02B
:10351000E06B836B98472368B6E7C046FF7FFFFFE9
:103520008D3A0008C9370008F0B5C6461700412299
:103530000E00282100B59846835C04001940282914
:1035400003D0012080BCB846F0BD002E32D0002F41
:1035500030D0FC25835C03681868A84318604020BD
:10356000255C012D4BD001252554A05C292825D0B0
:1035700041222A21A15401320A39A1540022626455
:103580005A6820490A405A606785628D66622285C2
:103590004246E2621C4A62639A69D20301D408225D
:1035A000DA6140220021A1541A68FC310A4300204C
:1035B0001A60C7E780239B006364C2E7A25C1140E6
:1035C00028394A1E9141AF22494291431A68433932
:1035D000114019601A685204CAD51A680B49A06BC9
:1035E0000A401A600028C3D0094B836300F046FDEF
:1035F000002802D0A06B836B98472368B8E70220AD
:10360000A0E7C046FF7FFFFF8D3A0008FFBFFFFF26
:10361000C93700084122815C03000220202909D11A
:10362000002008319954044A90315A631A6813688B
:103630000B4313607047C0468D3A000810B5422115
:10364000002402681368445459040BD513682049B8
:103650000B4013604121435C292B0DD0435C2A2B86
:1036600020D010BD1B04F5D513681A490B40412129
:103670001360435C292BF1D12124013B43540463A3
:10368000415C0B40283B591E8B41AF215B428B4371
:103690001168433B0B40136040230022C254FEF7E5
:1036A00081FBDEE72224023B43540463415C0B4070
:1036B000283B591E8B41AF215B428B431168453B30
:1036C0000B40136040230022C254FEF749FBC8E7B9
:1036D000FFBFFFFFFF7FFFFFF8B5FE240368996976
:1036E000C903CA0F944699699A68DD68090C2E00CF
:1036F000C5682140022D0FD19205970D520F4A4007
:1037000006210D001540114212D1816C01318164F6
:10371000826C022A19D0F8BDB8241A68A2431A6034
:1037200040230022C2540A006146FEF7DBFAF2E7AA
:10373000B8211A688A431A6040230022C25432001A
:1037400061462240FEF7CEFAE5E706328564DA618B
:1037500040233A006146C554FEF7C4FADBE7C04691
:10376000174B10B54122C362202400230363845405
:1037700001328354436304330B4211D00268516A0F
:10378000426A1170426A01324262028D002A07D0F9
:10379000013A0285428D013A4285426C13434364EB
:1037A0004123FE21C25CC35C03681A688A431A6025
:1037B0001022DA6140230022C254FEF715FB10BD2F
:1037C0000000FFFF7047C046806A10B5836B002B76
:1037D00001D000229A63C36B002B01D000229A63B0
:1037E0004123C25C602A06D0002340220363835435
:1037F000FEF7E4FA10BD403AC254002320320363BE
:103800008354FFF7DFFFF5E7412270B50400835CC6
:10381000422500206055444D283BE5626085606C80
:10382000084360642168022B34D82825A35CA25C7D
:103830002B40283B581E8341B0205B420340463357
:10384000DB432A40282A01D0F7235B420A68134051
:103850000B6028224123E254344BA06B6363236B3B
:10386000002804D01A001025113AAA431FD0E06B9B
:10387000002803D01022123B93432DD04123E25C59
:10388000602A47D00023402223632000A354FEF780
:1038900095FA70BDFE20A35CA35C0B6883430B60AC
:1038A000A35C602B01D02023A3540023D5E70B6831
:1038B0005B042AD400F00AFC0128DFD0A06B1C4B6B
:1038C000002283634023E25400F0D8FB0028E0D0BC
:1038D000A06B836B9847DCE70B681B0403D50B6870
:1038E000144A13400B6000F0F1FB0128C6D0E06BD6
:1038F0000F4B002283634023E25400F0BFFB0028FB
:10390000C7D0E06B836B9847C3E70B680A4A134044
:103910000B60CFE7403AE2540023203223632000BB
:10392000A354FFF74FFFB4E70000FFFF8D3A0008F4
:10393000C9370008FF7FFFFFFFBFFFFF70B50368B7
:103940000400412020260D001968225CDE61183E2B
:10395000B243212A4FD0222A00D171E08022586838
:10396000120202435A605A68444802405A609A69F7
:10397000920701D500229A6201229869024202D17F
:10398000986902439A614A043CD51A683C490A4046
:103990001A60A26B002A02D0126852686285042263
:1039A0002A4209D095435A6A636A1A70636A0133DE
:1039B0006362238D002B3DD1638D002B03D0042245
:1039C000636C1343636400234222A354666C6363F5
:1039D000002E3CD1E36A2B4DAB421DD14123E25C6A
:1039E000222A41D02022E254402326632000E654BC
:1039F000FEF7D8F970BD205C1868F236B043186045
:103A00002263ABE70904CAD51A681F490A401A6045
:103A1000E26B002AC0D1C2E72000FFF70FFE41236E
:103A20002022E562E254013B26632000E654FEF7C3
:103A3000DBF9DFE7013B2385638D013B6385BBE752
:103A4000FC26205C1868B0431860226386E72000DB
:103A5000616CFFF7D9FE4123E35C282BCAD1290012
:103A60002000FFF77DFEC5E7023AE254013B2663E2
:103A70002000E654FEF774F9BCE7C04600E800FEFB
:103A8000FFBFFFFF0000FFFFFF7FFFFFF8B5C36A26
:103A900016001F004023C25C04000D00012A00D163
:103AA00076E00122C254203B0B4201D0334252D176
:103AB00010232B4216D0334214D0628D002A50D1ED
:103AC0003133E35C282B00D168E04123E25C2368BA
:103AD000292A00D16CE01022DA6140230022002064
:103AE000E254F8BD04232B4219D108232B4201D004
:103AF000334244D102232B42EFD03342EDD0638DC9
:103B0000002B47D0636A226819780133916263629F
:103B1000638D013B6385238D013B2385DDE73342C4
:103B2000E3D0638D002B0CD023685A6A636A1A7045
:103B3000636A01336362238D013B2385638D013BFF
:103B40006385638D002BC8D1254B9F42C5D02000D3
:103B5000FFF774FDC1E7FFF7F1FE10232B42C1D040
:103B6000A9E72268D3610422636C134363641D4B8D
:103B70001F42B2D12000616CFFF746FEADE7412243
:103B8000A15C193A0A40282A25D02268D361A4E70B
:103B90000220A6E7134B1F429FD1D8E780239B0446
:103BA0009F4200D091E729002000FFF7D9FD94E75C
:103BB0000B4A974200D18EE71022DA619A69920788
:103BC00001D500229A62012299690A42BFD19969FE
:103BD0000A439A61BBE72000FFF77EFD7DE7C04600
:103BE0000000FFFFFFFFFFFE406C70474122F0B571
:103BF000835CDFB2202B1AD14024035D012B16D049
:103C000024230126835403681D68B5431D601D6885
:103C1000084E354001261D601D682943196019684A
:103C2000314319600023875403550020F0BD022062
:103C3000FCE7C046FFEFFFFF10B5041E3BD0392361
:103C4000C35C002B32D0392302228021E254226847
:103C5000C90513688A4208D018498A4205D0184914
:103C60008A4202D017498A4207D170218B43A1684A
:103C70000B4315490B4021690B4380218B4361693C
:103C800000200B431360E368D362636893620123EF
:103C900053613E22A354043AA3540132A354013287
:103CA000A3540132A354043AA35410BD38228354C0
:103CB000FDF768FEC7E70120F7E7C04600040040B3
:103CC0000008014000140140FFFCFFFF3921425C65
:103CD0000300D0B284460120012A17D101325A5480
:103CE00061461B68DA680A43DA608022D205934293
:103CF0000DD00C4A93420AD00B4A934207D00B4A8C
:103D0000934204D01A680A431A60002070470722C1
:103D100099680A40062AF8D001211A6800200A434F
:103D20001A60F3E70004004000080140001401405D
:103D30007047C0467047C0467047C0467047C0468F
:103D40000222036810B5196904000A4202D0D9683A
:103D50000A4254D1042219690A4202D0D9680A429F
:103D60003AD1082219690A4202D0D9680A4225D1FB
:103D7000102219690A4202D0D9680A420ED10122E2
:103D800019690A4202D0D9680A424ED14022196903
:103D90000A4202D0D9680A4241D110BD213A1A61C3
:103DA00019322276DA69C0239B0020001A4243D0E0
:103DB000FFF7C0FF002323762368E0E7113A1A617A
:103DC0000D322276DB6920009B0741D0FFF7B2FF5E
:103DD000002323762368CBE7093A1A61073222765B
:103DE0009A69C0239B0020001A422ED1FFF7A0FF42
:103DF0002000FFF7A1FF002323762368B1E7053AEF
:103E00001A61043202769B699B071BD1FFF790FF72
:103E10002000FFF791FF0023237623689AE7813A79
:103E200020001A61FFF78AFFB7E7033A1A61200002
:103E3000FDF7C2FB2368A9E7FFF77AFF2000FFF731
:103E40007BFFB7E7FFF776FFE5E7FFF773FFD2E702
:103E5000FFF76EFF2000FFF76FFFB9E710B5041EF4
:103E60000ED00379002B07D00223237100230020FA
:103E700023610133237110BD4371FDF791FDF3E719
:103E80000120F8E730B543790C001100012B18D060
:103E900002230D4D02688D4003711368AB439C46AD
:103EA00018CC23438B4064462343C0248C401360CA
:103EB0001368A3431360012303710023437100209F
:103EC00030BD0220FCE7C046FE0F000010B543796C
:103ED000012B2AD0012202238A4003719C460368E9
:103EE0001C6822431A601A6800290CD1196852070D
:103EF00003D538220A40382A12D001230371002347
:103F00004371002010BD19685203F6D5E0229203D8
:103F100011409142F1D161465A680A435A60ECE778
:103F200001215A680A435A60E7E70220EAE7C046DF
:103F300010B50024006882B001940190002908D1D6
:103F400001990831891801910020019A136002B08B
:103F500010BD0199143189180191F5E7FF2203235F
:103F600010B51400C64603408901DB000A409C409E
:103F70009A4000B500280CDBC0210C4B8008800063
:103F8000C01889004358A3431343435010BCA046B4
:103F900010BD0F230340083B05499B089B005B189D
:103FA000D969A1430A43DA61F0E7C04600E100E0C5
:103FB00000ED00E0002805DB1F2318401E3B834076
:103FC000014A13607047C04600E100E08022431EB2
:103FD0005204012093420ED2C021074A0748536081
:103FE000036A09061B021B0A0B430362002300201D
:103FF000936007331360704710E000E000ED00E0CD
:1040000070B5050019480E00016880230A000124DC
:104010009B001A409446164A126A2240194201D067
:10402000002A1CD1032011490B6883432B430B60EA
:104030000421104803698B430361012E14D040BF53
:1040400020BF20BF6346002B07D0002A05D0802365
:10405000064A9B0011680B431360C04670BD03689D
:1040600005490B400360DDE730BFEBE7007000401F
:104070000000014000ED00E0FFFDFFFF252310B52B
:10408000C25C022A03D0213BC363012010BD0E2471
:1040900002681168A143116011680C0001218C4372
:1040A00014601C24026C9446426C22400C00944024
:1040B000220064466260C15400222423C254836BF0
:1040C000002B00D098470020E0E7C0462523C05CC5
:1040D000C0B270470D4885460D480E490E4A002370
:1040E00002E0D458C4500433C4188C42F9D30B4AAC
:1040F0000B4C002301E013600432A242FBD3FEF715
:10410000B5F8FDF76DFAFDF7FDF9FEE70050002068
:104110000000002010000020F841000810000020DE
:1041200078010020FEE70000A11B0008C91B000861
:10413000991B0008880A0008B40900089E090008B5
:104140001A0A00089E0900084E0A00089E09000885
:104150001A0A0008B4090008B40900084E0A000849
:104160001A0A00088A0900088A0900088A09000852
:10417000580A0008B4090008B40900089E0900089C
:10418000F60A00089E0900084E0A00089E09000869
:10419000F60A0008B4090008B40900084E0A00082D
:1041A000F60A00088A0900088A0900088A09000836
:1041B0007C210008D4210008EC210008C22100085D
:1041C00008220008FA2100082022000880210008A7
:1041D000A2210008030406080C101820300000007B
:1041E00000000000000000000102030406070809A7
:0841F0001CC1FF7F010000006B
:1041F8000024F4000000200001000000040000007A
:04000005080000C02F
:00000001FF
